:1000000014C023C022C021C0C4C01FC01EC01DC058
:100010001CC01BC01AC01AC018C017C016C015C01B
:1000200014C013C012C011C010C011241FBECFE5F0
:10003000D1E0DEBFCDBF20E0A0E6B0E001C01D9260
:10004000A637B207E1F7BCD051C2DACF1F920F92A8
:100050000FB60F9211242F933F934F935F938F937B
:100060009F93B39B1EC0C09AC198C29881E090E054
:1000700090936D0080936C0023E030E03093670034
:100080002093660042E050E050936900409368007E
:10009000309371002093700090936300809362000E
:1000A000D89AB49B20C0C098C19AC29882E090E0D0
:1000B00090936D0080936C0085E090E090936700D2
:1000C0008093660024E030E030936900209368005C
:1000D000909371008093700081E090E090936300B2
:1000E00080936200D89AB59B22C0C098C198C29AEA
:1000F00083E090E090936D0080936C0087E090E047
:10010000909367008093660085E090E0909369008B
:100110008093680086E090E0909371008093700077
:1001200081E090E09093630080936200D89AB69B40
:1001300025C0809162009091630081309105F1F4B7
:1001400020916A0030916B002130310559F41092F2
:100150006B0010926A00D89AD998DA989098919882
:10016000C7980CC0109273001092720090936500B3
:100170008093640090936B0080936A009F918F91AD
:100180005F914F913F912F910F900FBE0F901F9055
:1001900018951F920F920FB60F9211248F939F9371
:1001A00080917200909173000196909373008093F8
:1001B00072009F918F910F900FBE0F901F90189516
:1001C000109273001092720087B3876887BB8D9A74
:1001D00080B5886780BD83E085BF8BB780628BBFA9
:1001E0008EB588608EBD8EB585608EBD8EE39DE335
:1001F0009BBD8ABD89B7806489BF7894BAE0EB2E35
:10020000F12CC3E0CC2ED12CD4E0AD2EB12C12E0D9
:10021000812E912C80916A0090916B00019709F0DA
:1002200030C180916400909165008230910519F190
:100230001CF4019741F08CC083309105D9F10497EB
:1002400009F45BC085C0D99AD89880916C009091D0
:100250006D004091720050917300841B950B909338
:10026000750080937400892B09F072C0909265002C
:10027000809264006DC0C79A919AD99840916C00A1
:1002800050916D008091660090916700840F951FDA
:100290004091720050917300841B950B90937500F0
:1002A00080937400892B09F053C0D0926500C092EE
:1002B00064004EC0909A91984091680050916900F6
:1002C00080916C0090916D00840F951F40916600A5
:1002D00050916700840F951F4091720050917300F8
:1002E000841B950B9093750080937400892B81F586
:1002F000B0926500A09264002BC0DA9A9098409169
:100300007000509171008091680090916900840F95
:10031000951F40916C0050916D00840F951F409186
:10032000660050916700840F951F409172005091B4
:100330007300841B950B9093750080937400892B38
:1003400039F410926B0010926A00DA98C798D89A24
:100350008091740090917500B701A1D090936F00C7
:1003600080936E007093610060936000969A82B3F0
:10037000837C82BB42B380916E0090916F0081704C
:100380009927880F991F880F991F842B82BB42B32E
:1003900080916E0081FB442440F8512CC20133E06F
:1003A000880F991F3A95E1F7842B82BB42B3809165
:1003B0006E0082FB662460F8712CC30154E0880F44
:1003C000991F5A95E1F7842B82BB42B380916E004E
:1003D00083FB222720F930E0C90165E0880F991FCF
:1003E0006A95E1F7842B82BB89EF90E00197F1F7E2
:1003F00000C00000969882B3837C82BB42B3809198
:1004000060009091610081709927880F991F880F73
:10041000991F842B82BB42B38091600081FBEE2741
:10042000E0F9F0E0CF01E3E0880F991FEA95E1F7EA
:10043000842B82BB42B38091600082FB882780F9C5
:10044000C82F90E0D92FCE01F4E0880F991FFA95BC
:10045000E1F7842B82BB42B38091600083FB0027CD
:1004600000F910E0C801A5E0880F991FAA95E1F7EF
:10047000842B82BB89EF90E00197F1F700C0000068
:10048000C9CE969A82B3837C82BB89EF90E00197B4
:10049000F1F700C00000969882B3837CEACF97FB07
:1004A000072E16F4009406D077FD08D00BD007FC79
:1004B00005D03EF4909581959F4F08957095619574
:1004C0007F4F0895AA1BBB1B51E107C0AA1FBB1F8A
:1004D000A617B70710F0A61BB70B881F991F5A95D0
:1004E000A9F780959095BC01CD010895F894FFCFB0
:00000001FF
