:100000000C9453010C947B010C947B010C947B01A8
:100010000C947B010C947B010C947B010C947B0170
:100020000C947B010C947B010C947B010C947B0160
:100030000C947B010C947B010C947B010C947B0150
:100040000C94B0040C947B010C947B010C947B0108
:100050000C947B010C947B010C947B010C947B0130
:100060000C947B010C947B01000000000000005FF9
:1000700000000007000700147F147F14242A7F2A41
:10008000122313086462364955225000050300000C
:10009000001C2241000041221C0014083E081408E4
:1000A000083E0808005030000008080808080060F2
:1000B00060000020100804023E5149453E00427F86
:1000C000400042615149462141454B311814127F8D
:1000D0001027454545393C4A494930017109050316
:1000E0003649494936064949291E0036360000007E
:1000F0005636000008142241001414141414004150
:100100002214080201510906324979413E7E11113B
:10011000117E7F494949363E414141227F4141227A
:100120001C7F494949417F090909013E4149497AF2
:100130007F0808087F00417F41002040413F017F48
:10014000081422417F404040407F020C027F7F0420
:1001500008107F3E4141413E7F090909063E415159
:10016000215E7F09192946464949493101017F012C
:10017000013F4040403F1F2040201F3F4038403F4C
:100180006314081463070870080761514945430068
:100190007F41410002040810200041417F00040219
:1001A0000102044040404040000102040020545439
:1001B00054787F48444438384444442038444448C0
:1001C0007F3854545418087E0901020C5252523E92
:1001D0007F0804047800447D40002040443D007FB7
:1001E0001028440000417F40007C041804787C08FB
:1001F00004047838444444387C1414140808141453
:10020000187C7C080404084854545420043F44409B
:10021000203C4040207C1C2040201C3C4030403C86
:1002200044281028440C5050503C4464544C440022
:100230000836410000007F00000041360800100829
:100240000810080000000000000000002400270043
:100250002A0000000000250028002B0000000000FC
:1002600023002600290004040404040404040202F8
:100270000202020203030303030301020408102025
:100280004080010204081020010204081020000030
:100290000008000201000003040700000000000045
:1002A00000003307640711241FBECFEFD8E0DEBF84
:1002B000CDBF21E0A0E4B1E001C01D92A43CB20793
:1002C000E1F711E0A0E0B1E0E0E2F4E102C0059066
:1002D0000D92A034B107D9F711E0C2E5D1E004C016
:1002E0002197FE010E940208C135D107C9F70E947B
:1002F00036050C94030A0C940000833081F028F436
:10030000813099F08230A9F008958730A9F08830C3
:10031000C9F08430B1F4809180008F7D03C080915A
:1003200080008F7780938000089584B58F7784BD97
:10033000089584B58F7DFBCF8091B0008F77809337
:10034000B00008958091B0008F7DF9CFCF93DF93F7
:10035000282F30E0F901E257FD4F8491F901E6586A
:10036000FD4FD491F901EA59FD4FC491CC23A1F07E
:1003700081110E947D01EC2FF0E0EE0FFF1FE45A87
:10038000FD4FA591B491EC91ED2381E090E009F44B
:1003900080E0DF91CF91089580E090E0FACF1F9345
:1003A000CF93DF93282F30E0F901E257FD4F84917E
:1003B000F901E658FD4FD491F901EA59FD4FC49176
:1003C000CC23A9F0162F81110E947D01EC2FF0E0C3
:1003D000EE0FFF1FEE5AFD4FA591B4918FB7F89421
:1003E000EC91111108C0D095DE23DC938FBFDF9113
:1003F000CF911F910895DE2BF8CFCF93DF9390E03C
:10040000FC01E658FD4F24918A599D4FFC018491CF
:100410008823D1F090E0880F991FFC01E85BFD4F25
:10042000A591B491FC01EE5AFD4FC591D491611193
:100430000EC09FB7F8948C91E22FE0958E238C9399
:100440002881E223E8839FBFDF91CF9108958FB782
:10045000F894EC91E22BEC938FBFF6CF8E50806432
:1004600080937C0080917A00806480937A008091F0
:100470007A0086FDFCCF80917800909179000895F4
:100480003FB7F89480916D0190916E01A0916F013A
:10049000B091700126B5A89B05C02F3F19F00196B9
:1004A000A11DB11D3FBFBA2FA92F982F8827BC01CE
:1004B000CD01620F711D811D911D42E0660F771FF6
:1004C000881F991F4A95D1F708958F929F92AF92F6
:1004D000BF92CF92DF92EF92FF920E9440024B01B7
:1004E0005C0184E6C82ED12CE12CF12C0E94400244
:1004F000681979098A099B09683E7340810591054D
:10050000A8F321E0C21AD108E108F10888EE880EAC
:1005100083E0981EA11CB11CC114D104E104F104B4
:1005200029F7FF90EF90DF90CF90BF90AF909F9012
:100530008F900895AF92BF92CF92DF92EF92FF9289
:100540000F931F93CF93DF936C017B018B01040FFB
:10055000151FEB015E01AE18BF08C017D10759F097
:100560006991D601ED91FC910190F081E02DC601D9
:100570000995892B79F7C501DF91CF911F910F91D3
:10058000FF90EF90DF90CF90BF90AF900895FC0167
:10059000448155816081718181E791E00C949A02D8
:1005A000089590E080E008958F929F92AF92BF925D
:1005B0000F931F93CF93DF93CDB7DEB7A1970FB6FD
:1005C000F894DEBF0FBECDBF19A2423008F44AE056
:1005D0008E010F5D1F4F842E912CB12CA12CA501F3
:1005E00094010E94CC07E62FB901CA01EA3044F514
:1005F000E05DD801EE938D01232B242B252B79F779
:1006000090E080E0109769F0FD0101900020E9F78B
:100610003197AF014A1B5B0BBD0181E791E00E945E
:100620009A02A1960FB6F894DEBF0FBECDBFDF9140
:10063000CF911F910F91BF90AF909F908F90089591
:10064000E95CD7CFFC0101900020E9F73197AF01B9
:10065000481B590BBC0181E791E00C949A02EF9280
:10066000FF920F931F93CF93DF93EC01042F8E81A2
:100670000E94CF0160E088850E94CF01FC80ED8060
:1006800018E0602F661F6627661F8E2D0E94CF011F
:10069000000F61E08F2D0E94CF0160E08F2D0E943E
:1006A000CF01115071F761E08885DF91CF911F91E3
:1006B0000F91FF90EF900C94CF01CF93DF93C1E7A0
:1006C000D1E01C8690E06B8529E3629F612D1124A7
:1006D000669570E06F5F7F4F0E94B8078D8740E896
:1006E00060E0CE010E942F034D85406460E0CE01A2
:1006F000DF91CF910C942F03CF93DF9380E00E9482
:100700005D03D0E0C0E080917C018695869586955A
:1007100090917B01899FC0011124C817D90740F42B
:1007200040E061E081E791E00E942F032196EBCF4A
:1007300080E0DF91CF910C945D03FC018081918179
:10074000009711F00C94A40808950F931F93CF9372
:10075000DF93EC0188819981009759F02A813B81D0
:100760002617370730F081E0DF91CF911F910F916D
:1007700008958B016F5F7F4F0E942D09009759F0FC
:10078000998388831B830A832C813D81232B59F70E
:10079000FC011082E8CF80E0E7CFEF92FF920F9349
:1007A0001F93CF93DF93EC017B01FB0101900020AD
:1007B000E9F731978F01061B170BB8010E94A503BB
:1007C00028813981811113C02115310519F0C90122
:1007D0000E94A408198218821D821C821B821A8220
:1007E000DF91CF911F910F91FF90EF9008951D839E
:1007F0000C83B701C901DF91CF911F910F91FF9039
:10080000EF900C94FC09CF92DF92EF92FF920F933E
:100810001F93CF93DF9300D000D01F92CDB7DEB7E8
:1008200067FD6BC07C01862F90E0603208F455C0F4
:10083000809725E0289FB001299F700D11246859E9
:100840007F4F45E050E0CE0101960E9478078E016F
:100850000F5F1F4F680185E0C80ED11CF801419160
:100860008F01F70186858111409561E0C7010E94E3
:100870002F030C151D0591F7F7014685419561E0A1
:10088000C7010E942F03F701848590E006966285D8
:1008900070E00E94B8078487892B79F4858590E001
:1008A0000196638529E3629F612D1124669570E0AE
:1008B0006F5F7F4F0E94B807858781E090E00F90BF
:1008C0000F900F900F900F90DF91CF911F910F918C
:1008D000FF90EF90DF90CF900895880F991FF70158
:1008E000E80FF91F078510890115110509F0B2CF2E
:1008F00045E050E068E670E0A6CF90E080E0DFCF12
:10090000CF92DF92EF92FF92CF93DF936C01990F1A
:10091000EE08FF08F7FE19C06DE281E791E00E9442
:100920000304EC0166277727CB016C197D098E093A
:100930009F094AE00E94D4028C0F9D1FDF91CF9146
:10094000FF90EF90DF90CF9008954AE0C701B60185
:10095000DF91CF91FF90EF90DF90CF900C94D40275
:100960001F920F920FB60F9211242F933F938F93E4
:100970009F93AF93BF938091690190916A01A09179
:100980006B01B0916C013091680123E0230F2D378A
:1009900058F50196A11DB11D20936801809369014E
:1009A00090936A01A0936B01B0936C0180916D01EB
:1009B00090916E01A0916F01B09170010196A11DFF
:1009C000B11D80936D0190936E01A0936F01B09360
:1009D0007001BF91AF919F918F913F912F910F9097
:1009E0000FBE0F901F90189526E8230F0296A11DA9
:1009F000B11DD2CFEF92FF920F931F93CF93DF934E
:100A0000EC017B01198218821B821A821D821C82D2
:100A1000FB0101900020E9F731978F01061B170BAE
:100A2000B8010E94A50328813981811113C02115C5
:100A3000310519F0C9010E94A408198218821D828B
:100A40001C821B821A82DF91CF911F910F91FF9020
:100A5000EF9008951D830C83B701C901DF91CF91F9
:100A60001F910F91FF90EF900C94FC09CF93DF93AF
:100A700000D000D0CDB7DEB7789484B5826084BD55
:100A800084B5816084BD85B5826085BD85B5816092
:100A900085BD80916E00816080936E001092810010
:100AA00080918100826080938100809181008160CB
:100AB000809381008091800081608093800080918C
:100AC000B10084608093B1008091B0008160809318
:100AD000B00080917A00846080937A0080917A00DF
:100AE000826080937A0080917A00816080937A009E
:100AF00080917A00806880937A001092C10060E053
:100B000088E00E94FD0160E080E00E94FD0160E05D
:100B100081E00E94FD0160E08BE00E94FD0160E049
:100B20008CE00E94FD0184E580937B0180E380934B
:100B30007C0110927A0110927D0110927E01E0E812
:100B4000F1E080E4DF011D928A95E9F761E0809190
:100B500075010E94FD0161E0809176010E94FD0116
:100B600061E0809177010E94FD0161E08091780150
:100B70000E94FD0161E0809179010E94FD0161E028
:100B8000809178010E94CF0161E0809179010E94FB
:100B9000CF0160E0809178010E94CF010E94650240
:100BA00061E0809178010E94CF0141E260E081E73D
:100BB00091E00E942F0343E160E081E791E00E9411
:100BC0002F0380917A0142EC813039F440EE60E0ED
:100BD00081E791E00E942F0345E060E081E791E02A
:100BE0000E942F0340E260E081E791E00E942F0322
:100BF00049E060E081E791E00E942F030E947C03BE
:100C000048E060E081E791E00E942F034CE060E063
:100C100081E791E00E942F030E94650240E860E0B6
:100C200081E791E00E942F0340E460E081E791E0DA
:100C30000E942F030E947C0382E10E942E025C012D
:100C400083E10E942E026C0180E10E942E029A83B1
:100C5000898381E10E942E024C0180E00E94A6015E
:100C60003C0181E00E94A6012C018BE00E94A601BC
:100C70001C018CE00E94A6019C838B8388E00E946B
:100C8000A6018C01809166019091670108171907F0
:100C9000F9F001151105C1F480916401909165018D
:100CA000892B91F0E0906001F090610162E171E0C8
:100CB000C7010E94F30965E171E0892B09F0CAC000
:100CC00080E691E00E94CD031093670100936601D6
:100CD0008091640190916501892B09F45DC062E106
:100CE00071E080916001909161010E94F309892B6C
:100CF00009F052C068E171E06A94672811F060E37E
:100D000071E08AE591E00E94CD0368E171E04A94C8
:100D1000452811F060E371E084E591E00E94CD0385
:100D200068E171E02A94232811F060E371E08EE419
:100D300091E00E94CD03AB81BC8168E171E0119725
:100D400011F060E371E088E491E00E94CD03C501F9
:100D50006AE270E00E94B807709347016093460111
:100D6000C6016AE270E00E94B80770934501609383
:100D7000440189819A816AE270E00E94B807709309
:100D8000430160934201C4016AE270E00E94B80727
:100D9000709341016093400180E00E945D038AE10D
:100DA00091E00E94220381E00E945D0385E291E0D0
:100DB0000E94220380E691E00E94C70282E00E9426
:100DC0005D038CE291E00E9422038AE591E00E949B
:100DD000C70280914601909147010E94800483E000
:100DE0000E945D0381E391E00E94220384E591E08B
:100DF0000E94C70280914401909145010E948004A5
:100E000084E00E945D0386E391E00E9422038EE469
:100E100091E00E94C70280914201909143010E949B
:100E2000800485E00E945D038BE391E00E94220331
:100E300088E491E00E94C7028091400190914101B5
:100E40000E94800480E090E0892B09F4F3CE0E9498
:100E50000000F0CEC7010E94F309892B09F034CFBE
:100E600062E171E02DCFE1E7F1E0138212828AE0C6
:100E700091E09183808383E0848384E0858385E0AF
:100E8000868386E0878387E08087168662E171E04B
:100E900080E691E00E94FA0460E371E08AE591E067
:100EA0000E94FA0460E371E084E591E00E94FA0494
:100EB00060E371E08EE491E00E94FA0460E371E087
:100EC00088E491E00C94FA0488E491E00E949D0388
:100ED0008EE491E00E949D0384E591E00E949D03D1
:100EE0008AE591E00E949D0380E691E00C949D03C9
:100EF000FB01DC0102C005900D9241505040D8F733
:100F000008952F923F924F925F926F927F928F92AD
:100F10009F92AF92BF92CF92DF92EF92FF920F9388
:100F20001F93CF93DF93CDB7DEB7CA1BDB0B0FB692
:100F3000F894DEBF0FBECDBF09942A88398848884F
:100F40005F846E847D848C849B84AA84B984C884E5
:100F5000DF80EE80FD800C811B81AA81B981CE0FDC
:100F6000D11D0FB6F894DEBF0FBECDBFED010895C1
:100F700097FB072E16F4009407D077FD09D00E9446
:100F8000EE0707FC05D03EF4909581959F4F08959C
:100F9000709561957F4F0895A1E21A2EAA1BBB1B85
:100FA000FD010DC0AA1FBB1FEE1FFF1FA217B30735
:100FB000E407F50720F0A21BB30BE40BF50B661F4B
:100FC000771F881F991F1A9469F76095709580950F
:100FD00090959B01AC01BD01CF010895AA1BBB1BDD
:100FE00051E107C0AA1FBB1FA617B70710F0A61B29
:100FF000B70B881F991F5A95A9F780959095BC014A
:10100000CD010895EE0FFF1F0590F491E02D099496
:101010000F931F93CF93DF938230910510F482E0FA
:1010200090E0E091C201F091C30130E020E0B0E037
:10103000A0E0309799F42115310509F44AC0281B26
:10104000390B24303105D8F58A819B8161157105F2
:1010500089F1FB0193838283FE0111C0408151819C
:101060000281138148175907E0F04817590799F48E
:10107000109761F012960C93129713961C93329668
:10108000CF01DF91CF911F910F9108950093C2017D
:101090001093C301F4CF2115310551F042175307C6
:1010A00038F0A901DB019A01BD01DF01F801C1CFD0
:1010B000EF01F9CF9093C3018093C201CDCFFE0120
:1010C000E20FF31F819391932250310939832883D2
:1010D000D7CF2091C0013091C101232B41F4209141
:1010E0000201309103013093C1012093C00120918E
:1010F0000001309101012115310541F42DB73EB7B2
:101100004091040150910501241B350BE091C00171
:10111000F091C101E217F307A0F42E1B3F0B281733
:10112000390778F0AC014E5F5F4F2417350748F060
:101130004E0F5F1F5093C1014093C0018193919363
:101140009FCFF0E0E0E09CCFCF93DF930097E9F0F2
:10115000FC01329713821282A091C201B091C301A7
:10116000ED0130E020E01097A1F420813181820F61
:10117000931F2091C0013091C1012817390709F050
:1011800061C0F093C101E093C001DF91CF91089558
:10119000EA01CE17DF07E8F54A815B819E01411520
:1011A0005105B1F7E901FB83EA8349915991C40FD5
:1011B000D51FEC17FD0761F4808191810296840FA1
:1011C000951FE90199838883828193819B838A8318
:1011D000F0E0E0E012968D919C9113970097B9F59D
:1011E0002D913C911197CD010296820F931F209172
:1011F000C0013091C1012817390739F6309751F5F0
:101200001092C3011092C201B093C101A093C0011A
:10121000BCCFD383C28340815181840F951FC817EF
:10122000D90761F44E5F5F4F88819981480F591F3C
:10123000518340838A819B81938382832115310569
:1012400009F0B0CFF093C301E093C2019ECFFD013E
:10125000DC01C0CF13821282D7CFB0E0A0E0E3E37D
:10126000F9E00C9483078C01009751F4CB010E94A4
:1012700008088C01C801CDB7DEB7E0E10C949F07E8
:10128000FC01E60FF71F9C0122503109E217F3071A
:1012900008F49DC0D901CD91DC911197C617D707ED
:1012A00098F0C530D10530F3CE0104978617970723
:1012B00008F3C61BD70B2297C193D1936D937C93F0
:1012C000CF010E94A408D6CF5B01AC1ABD0A4C0125
:1012D0008C0E9D1EA091C201B091C301512C412CD6
:1012E000F12CE12C109731F58091C0019091C10152
:1012F0008815990509F05CC04616570608F058C0D5
:101300008091000190910101009741F48DB79EB743
:101310004091040150910501841B950BE817F907D2
:1013200008F055C0F093C101E093C001F901718349
:101330006083A0CF8D919C91119712966C9012971B
:1013400013967C901397A815B90559F56C0142E0E6
:10135000C40ED11CCA14DB0420F1AC014A195B098C
:10136000DA011296159780F062827382518340836E
:10137000D9016D937C93E114F10471F0D7011396B8
:10138000FC93EE93129776CF22968C0F9D1FF90156
:1013900091838083F301EFCFF093C301E093C20107
:1013A00069CF4816590608F42C017D01D3019ACF64
:1013B000CB010E9408087C01009749F0AE01B801FA
:1013C0000E94EA09C8010E94A408870153CF10E0D7
:1013D00000E050CFFB01DC0102C001900D924150B2
:1013E0005040D8F70895FB01DC018D9101908019E0
:1013F0000110D9F3990B0895FB01DC0101900D92C6
:101400000020E1F7089511E0C2E5D1E004C0FE013B
:101410000E9402082196C335D107C9F7F894FFCF7F
:101420000000C40180000000000003049A02D10201
:10143000D0024443004143002D00564F4C54494DC7
:101440004554524F004D4F444F3A200056313A20F8
:101450000056323A200056333A200056343A2000E3
:00000001FF
