:100000000C9453010C947B010C947B010C947B01A8
:100010000C947B010C947B010C947B010C947B0170
:100020000C947B010C947B010C947B010C947B0160
:100030000C947B010C947B010C947B010C947B0150
:100040000C94BC050C947B010C942C060C940606B5
:100050000C947B010C947B010C947B010C947B0130
:100060000C947B010C947B01000000000000005FF9
:1000700000000007000700147F147F14242A7F2A41
:10008000122313086462364955225000050300000C
:10009000001C2241000041221C0014083E081408E4
:1000A000083E0808005030000008080808080060F2
:1000B00060000020100804023E5149453E00427F86
:1000C000400042615149462141454B311814127F8D
:1000D0001027454545393C4A494930017109050316
:1000E0003649494936064949291E0036360000007E
:1000F0005636000008142241001414141414004150
:100100002214080201510906324979413E7E11113B
:10011000117E7F494949363E414141227F4141227A
:100120001C7F494949417F090909013E4149497AF2
:100130007F0808087F00417F41002040413F017F48
:10014000081422417F404040407F020C027F7F0420
:1001500008107F3E4141413E7F090909063E415159
:10016000215E7F09192946464949493101017F012C
:10017000013F4040403F1F2040201F3F4038403F4C
:100180006314081463070870080761514945430068
:100190007F41410002040810200041417F00040219
:1001A0000102044040404040000102040020545439
:1001B00054787F48444438384444442038444448C0
:1001C0007F3854545418087E0901020C5252523E92
:1001D0007F0804047800447D40002040443D007FB7
:1001E0001028440000417F40007C041804787C08FB
:1001F00004047838444444387C1414140808141453
:10020000187C7C080404084854545420043F44409B
:10021000203C4040207C1C2040201C3C4030403C86
:1002200044281028440C5050503C4464544C440022
:100230000836410000007F00000041360800100829
:100240000810080000000000000000002400270043
:100250002A0000000000250028002B0000000000FC
:1002600023002600290004040404040404040202F8
:100270000202020203030303030301020408102025
:100280004080010204081020010204081020000030
:100290000008000201000003040700000000000045
:1002A00000009A06760A11241FBECFEFD8E0DEBF09
:1002B000CDBF22E0ACE5B1E001C01D92A338B2078A
:1002C000E1F711E0A0E0B1E0EEEAFCE102C0059048
:1002D0000D92AC35B107D9F711E0C2E5D1E004C009
:1002E0002197FE010E94490CC135D107C9F70E9430
:1002F000FD060C944A0E0C940000833081F028F423
:10030000813099F08230A9F008958730A9F08830C3
:10031000C9F08430B1F4809180008F7D03C080915A
:1003200080008F7780938000089584B58F7784BD97
:10033000089584B58F7DFBCF8091B0008F77809337
:10034000B00008958091B0008F7DF9CFCF93DF93F7
:10035000282F30E0F901E257FD4F8491F901E6586A
:10036000FD4FD491F901EA59FD4FC491CC23A1F07E
:1003700081110E947D01EC2FF0E0EE0FFF1FE45A87
:10038000FD4FA591B491EC91ED2381E090E009F44B
:1003900080E0DF91CF91089580E090E0FACF1F9345
:1003A000CF93DF93282F30E0F901E257FD4F84917E
:1003B000F901E658FD4FD491F901EA59FD4FC49176
:1003C000CC23A9F0162F81110E947D01EC2FF0E0C3
:1003D000EE0FFF1FEE5AFD4FA591B4918FB7F89421
:1003E000EC91111108C0D095DE23DC938FBFDF9113
:1003F000CF911F910895DE2BF8CFCF93DF9390E03C
:10040000FC01E658FD4F24918A599D4FFC018491CF
:100410008823D1F090E0880F991FFC01E85BFD4F25
:10042000A591B491FC01EE5AFD4FC591D491611193
:100430000EC09FB7F8948C91E22FE0958E238C9399
:100440002881E223E8839FBFDF91CF9108958FB782
:10045000F894EC91E22BEC938FBFF6CF8E50806432
:1004600080937C0080917A00806480937A008091F0
:100470007A0086FDFCCF80917800909179000895F4
:100480003FB7F89480916B0190916C01A0916D0140
:10049000B0916E0126B5A89B05C02F3F19F00196BB
:1004A000A11DB11D3FBFBA2FA92F982F8827BC01CE
:1004B000CD01620F711D811D911D42E0660F771FF6
:1004C000881F991F4A95D1F708958F929F92AF92F6
:1004D000BF92CF92DF92EF92FF924B015C010E949C
:1004E00040026B017C010E9440026C197D098E095B
:1004F0009F09683E734081059105A8F321E0821AA7
:100500009108A108B10888EEC80E83E0D81EE11C4E
:10051000F11C81149104A104B10429F7FF90EF901C
:10052000DF90CF90BF90AF909F908F900895DB01A8
:1005300014964D915C9115976D917C91DC01ED9134
:10054000FC910280F381E02D0994AF92BF92CF928B
:10055000DF92EF92FF920F931F93CF93DF936C0183
:100560007B018B01040F151FEB015E01AE18BF0864
:10057000C017D10759F06991D601ED91FC91019016
:10058000F081E02DC6010995892B79F7C501DF912E
:10059000CF911F910F91FF90EF90DF90CF90BF9080
:1005A000AF900895FC01538D448D252F30E0842FAA
:1005B00090E0821B930B541710F0CF96089501978B
:1005C0000895FC01918D828D981761F0A28DAE0F78
:1005D000BF2FB11D5D968C91928D9F5F9F73928FFF
:1005E00090E008958FEF9FEF0895FC01918D828D2B
:1005F000981731F0828DE80FF11D858D90E00895F8
:100600008FEF9FEF0895FC01918D228D892F90E04F
:10061000805C9F4F821B91098F73992708958FE605
:1006200091E00E94030321E0892B09F420E0822F4E
:10063000089580E090E0892B29F00E940F0381113A
:100640000C9400000895FC01A48DA80FB92FB11DD2
:10065000A35ABF4F2C91848D90E001968F739927F8
:10066000848FA689B7892C93A089B1898C918370D6
:1006700080648C93938D848D981306C00288F389CF
:10068000E02D80818F7D80830895EF92FF920F93FC
:100690001F93CF93DF93EC0181E0888F9B8D8C8D2E
:1006A00098131AC0E889F989808185FF15C09FB722
:1006B000F894EE89FF896083E889F98980818370E5
:1006C000806480839FBF81E090E0DF91CF911F9194
:1006D0000F91FF90EF900895F62E0B8D10E00F5FB5
:1006E0001F4F0F731127E02E8C8D8E110CC00FB68B
:1006F00007FCFACFE889F989808185FFF5CFCE0123
:100700000E942303F1CFEB8DEC0FFD2FF11DE35A77
:10071000FF4FF0829FB7F8940B8FEA89FB898081A5
:100720008062CFCFCF93DF93EC01888D8823B9F01F
:10073000AA89BB89E889F9898C9185FD03C08081EC
:1007400086FD0DC00FB607FCF7CF8C9185FFF2CF69
:10075000808185FFEDCFCE010E942303E9CFDF9199
:10076000CF910895089590E080E00895EF92FF9270
:100770000F931F93CF93DF93EC01042F8E810E9480
:10078000CF0160E088850E94CF01FC80ED8018E0F9
:10079000602F661F6627661F8E2D0E94CF01000FF7
:1007A00061E08F2D0E94CF0160E08F2D0E94CF016C
:1007B000115071F761E08885DF91CF911F910F9102
:1007C000FF90EF900C94CF01CF93DF93C0E3D2E082
:1007D0001C8690E06B8529E3629F612D112466954C
:1007E00070E06F5F7F4F0E94FF0B8D8740E860E0F5
:1007F000CE010E94B6034D85406460E0CE01DF91DA
:10080000CF910C94B603CF93DF9380E00E94E40372
:10081000D0E0C0E080913B028695869586959091C8
:100820003A02899FC0011124C817D90740F440E05B
:1008300061E080E392E00E94B6032196EBCF80E076
:10084000DF91CF910C94E40320912E0230912F027E
:10085000232B39F421E0FC018081882361F020E022
:100860000AC0BC0180912A0290912B020E943A0E8C
:1008700021E0892BA1F7822F0895FB010190002030
:10088000E9F73197AF01461B570BDC01ED91FC9165
:100890000280F381E02D09944F925F926F927F92D4
:1008A0008F929F92AF92BF92CF92DF92EF92FF9280
:1008B0000F931F93CF93DF93CDB7DEB7A1970FB6FA
:1008C000F894DEBF0FBECDBF8C016B01770FEE0831
:1008D000FF08F7FE49C0DC01ED91FC910190F08129
:1008E000E02D6DE209955C0122273327A9012C191F
:1008F0003D094E095F0919A2FE01B1967F019AE0F8
:10090000492E512C612C712CCA01B901A30192010D
:100910000E94130C605DD7016E937D012115310596
:100920004105510589F790E080E0109721F0BD0165
:10093000C8010E943D048A0D9B1DA1960FB6F89434
:10094000DEBF0FBECDBFDF91CF911F910F91FF9002
:10095000EF90DF90CF90BF90AF909F908F907F905F
:100960006F905F904F900895A701960119A2FE0124
:10097000B1967F018AE0882E912CA12CB12CCA015E
:10098000B901A50194010E94130C605DD7016E931B
:100990007D01211531054105510589F790E080E081
:1009A000109759F2BD01C8010E943D04C6CF0C94B6
:1009B0003D04FC0180819181009711F00C94EB0CB7
:1009C00008950F931F93CF93DF93EC018881998152
:1009D000009759F02A813B812617370730F081E0D4
:1009E000DF91CF911F910F9108958B016F5F7F4F22
:1009F0000E94740D009759F0998388831B830A83A2
:100A00002C813D81232B59F7FC011082E8CF80E037
:100A1000E7CFEF92FF920F931F93CF93DF93EC01F9
:100A20007B01FB0101900020E9F731978F01061B44
:100A3000170BB8010E94E10428813981811113C08C
:100A40002115310519F0C9010E94EB0C1982188299
:100A50001D821C821B821A82DF91CF911F910F9100
:100A6000FF90EF9008951D830C83B701C901DF91BA
:100A7000CF911F910F91FF90EF900C94430ECF9266
:100A8000DF92EF92FF920F931F93CF93DF9300D0EB
:100A900000D01F92CDB7DEB767FD6BC07C01862FFB
:100AA00090E0603208F455C0809725E0289FB0019F
:100AB000299F700D112468597F4F45E050E0CE0109
:100AC00001960E948E0A8E010F5F1F4F680185E01C
:100AD000C80ED11CF80141918F01F7018685811163
:100AE000409561E0C7010E94B6030C151D0591F702
:100AF000F7014685419561E0C7010E94B603F70101
:100B0000848590E00696628570E00E94FF0B8487E2
:100B1000892B79F4858590E00196638529E3629FAE
:100B2000612D1124669570E06F5F7F4F0E94FF0B6F
:100B3000858781E090E00F900F900F900F900F90BD
:100B4000DF91CF911F910F91FF90EF90DF90CF90A9
:100B50000895880F991FF701E80FF91F078510897D
:100B60000115110509F0B2CF45E050E068E670E0EC
:100B7000A6CF90E080E0DFCF1F920F920FB60F92CA
:100B800011242F933F938F939F93AF93BF938091A3
:100B9000670190916801A0916901B0916A0130915B
:100BA000660123E0230F2D3758F50196A11DB11DD5
:100BB000209366018093670190936801A093690177
:100BC000B0936A0180916B0190916C01A0916D01CD
:100BD000B0916E010196A11DB11D80936B019093A0
:100BE0006C01A0936D01B0936E01BF91AF919F9185
:100BF0008F913F912F910F900FBE0F901F901895DE
:100C000026E8230F0296A11DB11DD2CF1F920F928D
:100C10000FB60F9211242F933F934F935F936F93CF
:100C20007F938F939F93AF93BF93EF93FF938FE641
:100C300091E00E942303FF91EF91BF91AF919F91AB
:100C40008F917F916F915F914F913F912F910F9075
:100C50000FBE0F901F9018951F920F920FB60F9214
:100C600011242F938F939F93EF93FF93E0917F0134
:100C7000F09180018081E0918501F091860182FDF3
:100C80001BC09081809188018F5F8F7320918901B3
:100C9000821741F0E0918801F0E0E159FE4F958F15
:100CA00080938801FF91EF919F918F912F910F90E9
:100CB0000FBE0F901F9018958081F4CFEF92FF9296
:100CC0000F931F93CF93DF93EC017B01198218825E
:100CD0001B821A821D821C82FB0101900020E9F711
:100CE00031978F01061B170BB8010E94E104288180
:100CF0003981811113C02115310519F0C9010E94F4
:100D0000EB0C198218821D821C821B821A82DF91D1
:100D1000CF911F910F91FF90EF9008951D830C8349
:100D2000B701C901DF91CF911F910F91FF90EF9013
:100D30000C94430EEFE6F1E01382128288EE93E00A
:100D4000A0E0B0E084839583A683B7838AE091E036
:100D50009183808385EC90E09587848784EC90E094
:100D60009787868780EC90E0918B808B81EC90E078
:100D7000938B828B82EC90E0958B848B86EC90E059
:100D8000978B868B118E128E138E148EE0E3F2E019
:100D9000138212828CE191E09183808383E08483CB
:100DA00084E0858385E0868386E0878387E080878B
:100DB000168664E271E08AE292E00E945E066BE5CC
:100DC00071E084E292E00E945E066BE571E08EE1E4
:100DD00092E00E945E066BE571E088E192E00E947D
:100DE0005E066BE571E082E192E00E945E066BE5D3
:100DF00071E08CE092E00C945E06CF93DF9300D01C
:100E000000D0CDB7DEB7789484B5826084BD84B558
:100E1000816084BD85B5826085BD85B5816085BDF5
:100E200080916E00816080936E00109281008091AD
:100E30008100826080938100809181008160809335
:100E40008100809180008160809380008091B1005A
:100E500084608093B1008091B00081608093B00085
:100E600080917A00846080937A0080917A00826019
:100E700080937A0080917A00816080937A008091DB
:100E80007A00806880937A001092C10060E088E068
:100E90000E94FD0160E080E00E94FD0160E081E0D1
:100EA0000E94FD0160E08BE00E94FD0160E08CE0AB
:100EB0000E94FD01E0917F01F091800182E080833A
:100EC000E0917B01F0917C011082E0917D01F09135
:100ED0007E018FEC808310928701E0918301F09175
:100EE000840186E08083E0918101F091820180811C
:100EF00080618083E0918101F0918201808188602E
:100F00008083E0918101F0918201808180688083FB
:100F1000E0918101F091820180818F7D808384E561
:100F200080933A0280E380933B0210923902109240
:100F30003C0210923D02EFE3F2E080E4DF011D92FB
:100F40008A95E9F761E0809134020E94FD0161E039
:100F5000809135020E94FD0161E0809136020E947D
:100F6000FD0161E0809137020E94FD0161E0809106
:100F700038020E94FD0161E0809137020E94CF019A
:100F800061E0809138020E94CF0160E080913702D9
:100F90000E94CF0164E670E080E090E00E9465026C
:100FA00061E0809137020E94CF0141E260E080E37E
:100FB00092E00E94B60343E160E080E392E00E9489
:100FC000B6038091390242EC813039F440EE60E0A2
:100FD00080E392E00E94B60345E060E080E392E0A7
:100FE0000E94B60340E260E080E392E00E94B60314
:100FF00049E060E080E392E00E94B6030E940304AF
:1010000048E060E080E392E00E94B6034CE060E0DC
:1010100080E392E00E94B60364E670E080E090E036
:101020000E94650240E860E080E392E00E94B6031F
:1010300040E460E080E392E00E94B6039AE2892EE9
:10104000912C0E94030482E10E942E023C0183E164
:101050000E942E022C0180E10E942E021C0181E1DF
:101060000E942E029A83898380E00E94A6015C017F
:1010700081E00E94A6016C018BE00E94A6017C0128
:101080008CE00E94A6018C0188E00E94A6019C834E
:101090008B8380916401909165012B813C8128179D
:1010A0003907E1F0232BA1F484E291E00E942404AB
:1010B00067E271E0811108C087E291E00E94240498
:1010C000882331F064E271E08AE292E00E9409052F
:1010D0008B819C81909365018093640184E291E00F
:1010E0000E942404882309F44EC16BE571E08CE072
:1010F00092E00E9409056AE271E0AA94AB2811F01F
:101100006BE571E084E292E00E9409056AE271E019
:10111000CA94CD2811F06BE571E08EE192E00E9457
:1011200009056AE271E0EA94EF2811F06BE571E0DD
:1011300088E192E00E9409056AE271E00130110540
:1011400011F06BE571E082E192E00E940905C301B4
:10115000B4010E94FF0B7093630160936201C201AE
:10116000B4010E94FF0B7093610160936001C101A3
:10117000B4010E94FF0B70935F0160935E0189814F
:101180009A81B4010E94FF0B70935D0160935C0132
:1011900080E00E94E40361E371E080E392E00E945A
:1011A000D70481E00E94E4036CE371E080E392E005
:1011B0000E94D7046AE272E080E392E00E94970204
:1011C00082E00E94E40363E471E080E392E00E9425
:1011D000D70464E272E080E392E00E94970260919B
:1011E00062017091630180E392E00E944C046CE024
:1011F00072E080E392E00E94970283E00E94E403A1
:1012000068E471E080E392E00E94D7046EE172E04E
:1012100080E392E00E949702609160017091610109
:1012200080E392E00E944C046CE072E080E392E084
:101230000E94970284E00E94E4036DE471E080E381
:1012400092E00E94D70468E172E080E392E00E949D
:10125000970260915E0170915F0180E392E00E94CD
:101260004C046CE072E080E392E00E94970285E01B
:101270000E94E40362E571E080E392E00E94D704FB
:1012800062E172E080E392E00E94970260915C016B
:1012900070915D0180E392E00E944C046CE072E08A
:1012A00080E392E00E9497026AE272E08FE691E0AA
:1012B0000E94970267E571E08FE691E00E94D704F3
:1012C00064E272E08FE691E00E9497026091620111
:1012D000709163018FE691E00E944C0467E571E034
:1012E0008FE691E00E94D7046EE172E08FE691E014
:1012F0000E94970260916001709161018FE691E018
:101300000E944C0467E571E08FE691E00E94D704EB
:1013100068E172E08FE691E00E94970260915E01C1
:1013200070915F018FE691E00E944C0467E571E0E7
:101330008FE691E00E94D70462E172E08FE691E0CF
:101340000E94970260915C0170915D018FE691E0CF
:101350000E944C0469E571E08FE691E00E943D0433
:1013600068EC70E080E090E00E94650280E090E030
:10137000892B09F466CE0E940F03882309F461CEFD
:101380000E9400005ECE87E291E00E942404882340
:1013900009F4FECE6CE271E08CE092E00E94090557
:1013A00024E630E03A832983D12CC12C82E10E94CB
:1013B0002E02C816D9060CF46C0189819A81019716
:1013C0009A838983892B91F7A4E6B0E0BA83A98335
:1013D000F12CE12C83E10E942E02E816F9060CF4B0
:1013E0007C0129813A81215031093A832983232BB9
:1013F00089F784E690E09A83898310E000E080E139
:101400000E942E02081719070CF48C01A981BA81D9
:101410001197BA83A983AB2B91F784E6A82EB12C40
:101420001A82198281E10E942E0229813A812817AD
:10143000390714F49A83898331E0A31AB10891F72C
:10144000C601B4010E94FF0B072E000C880B990BFC
:101450000E94990A24EF3DEF44E35FE30E94D40A1F
:101460000E94C90B7093630160936201C701B401CC
:101470000E94FF0B072E000C880B990B0E94990A03
:1014800024EF3DEF44E35FE30E94D40A0E94C90BBE
:101490007093610160936001C801B4010E94FF0B69
:1014A000072E000C880B990B0E94990A24EF3DEF40
:1014B00044E35FE30E94D40A0E94C90B70935F016A
:1014C00060935E0189819A81B4010E94FF0B072E0F
:1014D000000C880B990B0E94990A24EF3DEF44E31E
:1014E0005FE30E94D40A0E94C90B4ECE8CE092E0CA
:1014F0000E94D90482E192E00E94D90488E192E03E
:101500000E94D9048EE192E00E94D90484E292E024
:101510000E94D9048AE292E00C94D904FB01DC0118
:1015200002C005900D9241505040D8F70895E894BC
:1015300009C097FB3EF490958095709561957F4F1B
:101540008F4F9F4F9923A9F0F92F96E9BB279395C9
:10155000F695879577956795B795F111F8CFFAF4D9
:10156000BB0F11F460FF1BC06F5F7F4F8F4F9F4F0A
:1015700016C0882311F096E911C0772321F09EE868
:10158000872F762F05C0662371F096E8862F70E0CE
:1015900060E02AF09A95660F771F881FDAF7880FA8
:1015A0009695879597F908950E94E70A0C94580B31
:1015B0000E944A0B38F00E94510B20F0952311F045
:1015C0000C94410B0C94470B11240C948C0B0E942F
:1015D000690B70F3959FC1F3950F50E0551F629F03
:1015E000F001729FBB27F00DB11D639FAA27F00D7C
:1015F000B11DAA1F649F6627B00DA11D661F829FA3
:101600002227B00DA11D621F739FB00DA11D621F87
:10161000839FA00D611D221F749F3327A00D611DA4
:10162000231F849F600D211D822F762F6A2F112486
:101630009F5750409AF0F1F088234AF0EE0FFF1FB9
:10164000BB1F661F771F881F91505040A9F79E3F10
:10165000510580F00C94410B0C948C0B5F3FE4F32C
:10166000983ED4F3869577956795B795F795E79566
:101670009F5FC1F7FE2B880F911D9695879597F96F
:10168000089597F99F6780E870E060E008959FEF04
:1016900080EC089500240A94161617061806090609
:1016A000089500240A9412161306140605060895D8
:1016B000092E0394000C11F4882352F0BB0F40F460
:1016C000BF2B11F460FF04C06F5F7F4F8F4F9F4FA0
:1016D000089557FD9058440F551F59F05F3F71F022
:1016E0004795880F97FB991F61F09F3F79F0879589
:1016F0000895121613061406551FF2CF4695F1DF12
:1017000008C0161617061806991FF1CF86957105A1
:10171000610508940895E894BB2766277727CB01D5
:1017200097F908952F923F924F925F926F927F9216
:101730008F929F92AF92BF92CF92DF92EF92FF92E1
:101740000F931F93CF93DF93CDB7DEB7CA1BDB0B8D
:101750000FB6F894DEBF0FBECDBF09942A88398832
:1017600048885F846E847D848C849B84AA84B98439
:10177000C884DF80EE80FD800C811B81AA81B98145
:10178000CE0FD11D0FB6F894DEBF0FBECDBFED0159
:1017900008950E94D00B6894B1110C948C0B08959D
:1017A0000E94710B88F09F5798F0B92F9927B75175
:1017B000B0F0E1F0660F771F881F991F1AF0BA95F5
:1017C000C9F714C0B13091F00E948B0BB1E00895BD
:1017D0000C948B0B672F782F8827B85F39F0B93FAF
:1017E000CCF3869577956795B395D9F73EF49095A8
:1017F0008095709561957F4F8F4F9F4F089597FB10
:10180000072E16F4009407D077FD09D00E94350CFE
:1018100007FC05D03EF4909581959F4F08957095F3
:1018200061957F4F0895A1E21A2EAA1BBB1BFD01F3
:101830000DC0AA1FBB1FEE1FFF1FA217B307E407AF
:10184000F50720F0A21BB30BE40BF50B661F771F07
:10185000881F991F1A9469F76095709580959095E7
:101860009B01AC01BD01CF010895AA1BBB1B51E137
:1018700007C0AA1FBB1FA617B70710F0A61BB70B00
:10188000881F991F5A95A9F780959095BC01CD01A5
:101890000895EE0FFF1F0590F491E02D09940F932A
:1018A0001F93CF93DF938230910510F482E090E094
:1018B000E0918102F091820230E020E0B0E0A0E00F
:1018C000309799F42115310509F44AC0281B390BCA
:1018D00024303105D8F58A819B816115710589F124
:1018E000FB0193838283FE0111C0408151810281FB
:1018F000138148175907E0F04817590799F41097D2
:1019000061F012960C93129713961C933296CF01A6
:10191000DF91CF911F910F91089500938102109351
:101920008202F4CF2115310551F04217530738F0E8
:10193000A901DB019A01BD01DF01F801C1CFEF016F
:10194000F9CF9093820280938102CDCFFE01E20F06
:10195000F31F819391932250310939832883D7CF84
:1019600020917F0230918002232B41F420910201CB
:10197000309103013093800220937F022091000177
:10198000309101012115310541F42DB73EB7409149
:10199000040150910501241B350BE0917F02F09169
:1019A0008002E217F307A0F42E1B3F0B281739071C
:1019B00078F0AC014E5F5F4F2417350748F04E0FAB
:1019C0005F1F5093800240937F02819391939FCF3A
:1019D000F0E0E0E09CCFCF93DF930097E9F0FC01CB
:1019E000329713821282A0918102B0918202ED019E
:1019F00030E020E01097A1F420813181820F931F05
:101A000020917F02309180022817390709F061C0C8
:101A1000F0938002E0937F02DF91CF910895EA0175
:101A2000CE17DF07E8F54A815B819E01411551051C
:101A3000B1F7E901FB83EA8349915991C40FD51F9E
:101A4000EC17FD0761F4808191810296840F951F48
:101A5000E90199838883828193819B838A83F0E063
:101A6000E0E012968D919C9113970097B9F52D9116
:101A70003C911197CD010296820F931F20917F0216
:101A8000309180022817390739F6309751F51092B6
:101A9000820210928102B0938002A0937F02BCCF99
:101AA000D383C28340815181840F951FC817D90702
:101AB00061F44E5F5F4F88819981480F591F5183B0
:101AC00040838A819B81938382832115310509F0AC
:101AD000B0CFF0938202E09381029ECFFD01DC0142
:101AE000C0CF13821282D7CFB0E0A0E0EAE7FDE0DA
:101AF0000C94940B8C01009751F4CB010E944F0C75
:101B00008C01C801CDB7DEB7E0E10C94B00BFC014D
:101B1000E60FF71F9C0122503109E217F30708F482
:101B20009DC0D901CD91DC911197C617D70798F0C8
:101B3000C530D10530F3CE0104978617970708F317
:101B4000C61BD70B2297C193D1936D937C93CF0182
:101B50000E94EB0CD6CF5B01AC1ABD0A4C018C0E77
:101B60009D1EA0918102B0918202512C412CF12C3A
:101B7000E12C109731F580917F02909180028815B9
:101B8000990509F05CC04616570608F058C08091C8
:101B9000000190910101009741F48DB79EB74091EB
:101BA000040150910501841B950BE817F90708F013
:101BB00055C0F0938002E0937F02F9017183608346
:101BC000A0CF8D919C91119712966C9012971396BD
:101BD0007C901397A815B90559F56C0142E0C40E25
:101BE000D11CCA14DB0420F1AC014A195B09DA01EB
:101BF0001296159780F06282738251834083D901D7
:101C00006D937C93E114F10471F0D7011396FC936A
:101C1000EE93129776CF22968C0F9D1FF901918338
:101C20008083F301EFCFF0938202E093810269CFCA
:101C30004816590608F42C017D01D3019ACFCB0137
:101C40000E944F0C7C01009749F0AE01B8010E9440
:101C5000310EC8010E94EB0C870153CF10E000E069
:101C600050CFFB01DC0102C001900D924150504069
:101C7000D8F70895FB01DC018D91019080190110C6
:101C8000D9F3990B0895FB01DC0101900D9200201E
:101C9000E1F7089511E0C2E5D1E004C0FE010E9421
:0E1CA000490C2196C335D107C9F7F894FFCF40
:101CAE00000083028000000000004503A502D2025E
:101CBE0092030303E102F502000000003F05A502B6
:101CCE00B303B2034443004143002D0020726D73F1
:101CDE0000564F4C54494D4554524F004D4F444FB2
:101CEE003A200056313A200056323A200056333A06
:0C1CFE00200056343A20002C000D0A0093
:00000001FF
