:020000040000FA
:100000000C9453010C947B010C947B010C947B01A8
:100010000C947B010C947B010C947B010C947B0170
:100020000C947B010C947B010C947B010C947B0160
:100030000C947B010C947B010C947B010C947B0150
:100040000C94C6040C947B010C947B010C947B01F2
:100050000C947B010C947B010C947B010C947B0130
:100060000C947B010C947B01000000000000005FF9
:1000700000000007000700147F147F14242A7F2A41
:10008000122313086462364955225000050300000C
:10009000001C2241000041221C0014083E081408E4
:1000A000083E0808005030000008080808080060F2
:1000B00060000020100804023E5149453E00427F86
:1000C000400042615149462141454B311814127F8D
:1000D0001027454545393C4A494930017109050316
:1000E0003649494936064949291E0036360000007E
:1000F0005636000008142241001414141414004150
:100100002214080201510906324979413E7E11113B
:10011000117E7F494949363E414141227F4141227A
:100120001C7F494949417F090909013E4149497AF2
:100130007F0808087F00417F41002040413F017F48
:10014000081422417F404040407F020C027F7F0420
:1001500008107F3E4141413E7F090909063E415159
:10016000215E7F09192946464949493101017F012C
:10017000013F4040403F1F2040201F3F4038403F4C
:100180006314081463070870080761514945430068
:100190007F41410002040810200041417F00040219
:1001A0000102044040404040000102040020545439
:1001B00054787F48444438384444442038444448C0
:1001C0007F3854545418087E0901020C5252523E92
:1001D0007F0804047800447D40002040443D007FB7
:1001E0001028440000417F40007C041804787C08FB
:1001F00004047838444444387C1414140808141453
:10020000187C7C080404084854545420043F44409B
:10021000203C4040207C1C2040201C3C4030403C86
:1002200044281028440C5050503C4464544C440022
:100230000836410000007F00000041360800100829
:100240000810080000000000000000002400270043
:100250002A0000000000250028002B0000000000FC
:1002600023002600290004040404040404040202F8
:100270000202020203030303030301020408102025
:100280004080010204081020010204081020000030
:100290000008000201000003040700000000000045
:1002A00000000908400811241FBECFEFD8E0DEBFD0
:1002B000CDBF21E0A4E4B1E001C01D92AE3CB20785
:1002C000E1F711E0A0E0B1E0E2E4F8E102C005905E
:1002D0000D92A434B107D9F711E0C2E5D1E004C012
:1002E0002197FE010E94130AC135D107C9F70E9468
:1002F0004C050C94140C0C940000833081F028F40D
:10030000813099F08230A9F008958730A9F08830C3
:10031000C9F08430B1F4809180008F7D03C080915A
:1003200080008F7780938000089584B58F7784BD97
:10033000089584B58F7DFBCF8091B0008F77809337
:10034000B00008958091B0008F7DF9CFCF93DF93F7
:10035000282F30E0F901E257FD4F8491F901E6586A
:10036000FD4FD491F901EA59FD4FC491CC23A1F07E
:1003700081110E947D01EC2FF0E0EE0FFF1FE45A87
:10038000FD4FA591B491EC91ED2381E090E009F44B
:1003900080E0DF91CF91089580E090E0FACF1F9345
:1003A000CF93DF93282F30E0F901E257FD4F84917E
:1003B000F901E658FD4FD491F901EA59FD4FC49176
:1003C000CC23A9F0162F81110E947D01EC2FF0E0C3
:1003D000EE0FFF1FEE5AFD4FA591B4918FB7F89421
:1003E000EC91111108C0D095DE23DC938FBFDF9113
:1003F000CF911F910895DE2BF8CFCF93DF9390E03C
:10040000FC01E658FD4F24918A599D4FFC018491CF
:100410008823D1F090E0880F991FFC01E85BFD4F25
:10042000A591B491FC01EE5AFD4FC591D491611193
:100430000EC09FB7F8948C91E22FE0958E238C9399
:100440002881E223E8839FBFDF91CF9108958FB782
:10045000F894EC91E22BEC938FBFF6CF8E50806432
:1004600080937C0080917A00806480937A008091F0
:100470007A0086FDFCCF80917800909179000895F4
:100480003FB7F8948091710190917201A09173012E
:10049000B091740126B5A89B05C02F3F19F00196B5
:1004A000A11DB11D3FBFBA2FA92F982F8827BC01CE
:1004B000CD01620F711D811D911D42E0660F771FF6
:1004C000881F991F4A95D1F708958F929F92AF92F6
:1004D000BF92CF92DF92EF92FF924B015C010E949C
:1004E00040026B017C010E9440026C197D098E095B
:1004F0009F09683E734081059105A8F321E0821AA7
:100500009108A108B10888EEC80E83E0D81EE11C4E
:10051000F11C81149104A104B10429F7FF90EF901C
:10052000DF90CF90BF90AF909F908F900895AF9243
:10053000BF92CF92DF92EF92FF920F931F93CF93D0
:10054000DF936C017B018B01040F151FEB015E0132
:10055000AE18BF08C017D10759F06991D601ED91C7
:10056000FC910190F081E02DC6010995892B79F766
:10057000C501DF91CF911F910F91FF90EF90DF9018
:10058000CF90BF90AF900895FC0144815581608168
:1005900071818BE791E00C949702089590E080E0E0
:1005A00008958F929F92AF92BF920F931F93CF9314
:1005B000DF93CDB7DEB7A1970FB6F894DEBF0FBEBD
:1005C000CDBF19A2423008F44AE08E010F5D1F4FE3
:1005D000842E912CB12CA12CA50194010E94DD093F
:1005E000E62FB901CA01EA3044F5E05DD801EE9387
:1005F0008D01232B242B252B79F790E080E0109799
:1006000069F0FD0101900020E9F73197AF014A1B25
:100610005B0BBD018BE791E00E949702A1960FB69C
:10062000F894DEBF0FBECDBFDF91CF911F910F9128
:10063000BF90AF909F908F900895E95CD7CFFC0159
:1006400001900020E9F73197AF01481B590BBC011D
:100650008BE791E00C949702EF92FF920F931F9318
:10066000CF93DF93EC01042F8E810E94CF0160E0D5
:1006700088850E94CF01FC80ED8018E0602F661F06
:100680006627661F8E2D0E94CF01000F61E08F2D1F
:100690000E94CF0160E08F2D0E94CF01115071F7B1
:1006A00061E08885DF91CF911F910F91FF90EF90CE
:1006B0000C94CF01CF93DF93CBE7D1E01C8690E081
:1006C0006B8529E3629F612D1124669570E06F5F51
:1006D0007F4F0E94C9098D8740E860E0CE010E94EB
:1006E0002C034D85406460E0CE01DF91CF910C94E6
:1006F0002C03CF93DF9380E00E945A03D0E0C0E048
:100700008091860186958695869590918501899F31
:10071000C0011124C817D90740F440E061E08BE71D
:1007200091E00E942C032196EBCF80E0DF91CF91E6
:100730000C945A032091790130917A01232B39F4DA
:1007400021E0FC018081882361F020E00AC0BC0127
:1007500080917501909176010E94040C21E0892B13
:10076000A1F7822F0895FC0180819181009711F0FB
:100770000C94B50A08950F931F93CF93DF93EC0168
:1007800088819981009759F02A813B812617370784
:1007900030F081E0DF91CF911F910F9108958B018F
:1007A0006F5F7F4F0E943E0B009759F099838883BB
:1007B0001B830A832C813D81232B59F7FC01108276
:1007C000E8CF80E0E7CFEF92FF920F931F93CF9394
:1007D000DF93EC017B01FB0101900020E9F73197E9
:1007E0008F01061B170BB8010E94BB0328813981BA
:1007F000811113C02115310519F0C9010E94B50AF4
:10080000198218821D821C821B821A82DF91CF916D
:100810001F910F91FF90EF9008951D830C83B701F6
:10082000C901DF91CF911F910F91FF90EF900C9430
:100830000D0CCF92DF92EF92FF920F931F93CF9305
:10084000DF9300D000D01F92CDB7DEB767FD6BC03D
:100850007C01862F90E0603208F455C0809725E037
:10086000289FB001299F700D112468597F4F45E0E2
:1008700050E0CE0101960E9458088E010F5F1F4F75
:10088000680185E0C80ED11CF80141918F01F70184
:1008900086858111409561E0C7010E942C030C15EB
:1008A0001D0591F7F7014685419561E0C7010E945A
:1008B0002C03F701848590E00696628570E00E9423
:1008C000C9098487892B79F4858590E00196638531
:1008D00029E3629F612D1124669570E06F5F7F4F61
:1008E0000E94C909858781E090E00F900F900F90DA
:1008F0000F900F90DF91CF911F910F91FF90EF908C
:10090000DF90CF900895880F991FF701E80FF91F26
:10091000078510890115110509F0B2CF45E050E0B7
:1009200068E670E0A6CF90E080E0DFCFCF92DF9264
:10093000EF92FF92CF93DF936C01990FEE08FF08BF
:10094000F7FE19C06DE28BE791E00E941904EC01FB
:1009500066277727CB016C197D098E099F094AE02C
:100960000E94D1028C0F9D1FDF91CF91FF90EF90DD
:10097000DF90CF9008954AE0C701B601DF91CF9193
:10098000FF90EF90DF90CF900C94D1021F920F92C6
:100990000FB60F9211242F933F938F939F93AF9392
:1009A000BF9380916D0190916E01A0916F01B09104
:1009B000700130916C0123E0230F2D3758F501961B
:1009C000A11DB11D20936C0180936D0190936E0168
:1009D000A0936F01B09370018091710190917201A9
:1009E000A0917301B09174010196A11DB11D809376
:1009F000710190937201A0937301B0937401BF9140
:100A0000AF919F918F913F912F910F900FBE0F90BB
:100A10001F90189526E8230F0296A11DB11DD2CF75
:100A2000EF92FF920F931F93CF93DF93EC017B0123
:100A3000198218821B821A821D821C82FB0101907E
:100A40000020E9F731978F01061B170BB8010E94B0
:100A5000BB0328813981811113C02115310519F09B
:100A6000C9010E94B50A198218821D821C821B824C
:100A70001A82DF91CF911F910F91FF90EF9008950F
:100A80001D830C83B701C901DF91CF911F910F9195
:100A9000FF90EF900C940D0CCF93DF9300D000D01B
:100AA000CDB7DEB7789484B5826084BD84B58160AB
:100AB00084BD85B5826085BD85B5816085BD809129
:100AC0006E00816080936E001092810080918100A1
:100AD0008260809381008091810081608093810099
:100AE000809180008160809380008091B10084605B
:100AF0008093B1008091B00081608093B0008091BC
:100B00007A00846080937A0080917A00826080937A
:100B10007A0080917A00816080937A0080917A00D7
:100B2000806880937A001092C10060E088E00E94A3
:100B3000FD0160E080E00E94FD0160E081E00E9434
:100B4000FD0160E08BE00E94FD0160E08CE00E940E
:100B5000FD0184E58093850180E3809386011092F6
:100B600084011092870110928801EAE8F1E080E4A4
:100B7000DF011D928A95E9F761E080917F010E9473
:100B8000FD0161E0809180010E94FD0161E08091A2
:100B900081010E94FD0161E0809182010E94FD01BE
:100BA00061E0809183010E94FD0161E080918201FA
:100BB0000E94CF0161E0809183010E94CF0160E03B
:100BC000809182010E94CF0164E670E080E090E0B5
:100BD0000E94650261E0809182010E94CF0141E2A2
:100BE00060E08BE791E00E942C0343E160E08BE73B
:100BF00091E00E942C038091840142EC813039F411
:100C000040EE60E08BE791E00E942C0345E060E05D
:100C10008BE791E00E942C0340E260E08BE791E0DB
:100C20000E942C0349E060E08BE791E00E942C03D6
:100C30000E94790348E060E08BE791E00E942C037A
:100C40004CE060E08BE791E00E942C0364E670E0EA
:100C500080E090E00E94650240E860E08BE791E070
:100C60000E942C0340E460E08BE791E00E942C039B
:100C70009AE2892E912C0E94790382E10E942E0231
:100C80003C0183E10E942E022C0180E10E942E0291
:100C90001C0181E10E942E029A83898380E00E94D8
:100CA000A6015C0181E00E94A6016C018BE00E941C
:100CB000A6017C018CE00E94A6018C0188E00E94C4
:100CC000A6019C838B8380916A0190916B012B819B
:100CD0003C8128173907E1F0232BA1F482E191E050
:100CE0000E949A0365E171E0811108C085E191E0FD
:100CF0000E949A03882331F062E171E085E791E078
:100D00000E94E3038B819C8190936B0180936A0125
:100D100082E191E00E949A03882309F4C7C064E34A
:100D200071E084E691E00E94E30368E171E0AA9437
:100D3000AB2811F064E371E08EE591E00E94E303DB
:100D400068E171E0CA94CD2811F064E371E088E5B0
:100D500091E00E94E30368E171E0EA94EF2811F06A
:100D600064E371E082E591E00E94E30368E171E0F1
:100D70000130110511F064E371E08CE491E00E9410
:100D8000E303C301B4010E94C90970934B0160934E
:100D90004A01C201B4010E94C909709349016093DC
:100DA0004801C101B4010E94C909709347016093D1
:100DB000460189819A81B4010E94C9097093450155
:100DC0006093440180E00E945A038EE191E00E940A
:100DD0001F0381E00E945A0389E291E00E941F03F1
:100DE00085E791E00E94C40282E00E945A0380E3FA
:100DF00091E00E941F038EE591E00E94C402809161
:100E00004A0190914B010E94960484E691E00E9471
:100E1000C40283E00E945A0385E391E00E941F030D
:100E200088E591E00E94C4028091480190914901B7
:100E30000E94960484E691E00E94C40284E00E942D
:100E40005A038AE391E00E941F0382E591E00E9429
:100E5000C40280914601909147010E94960484E665
:100E600091E00E94C40285E00E945A038FE391E062
:100E70000E941F038CE491E00E94C402809144010F
:100E8000909145010E94960484E691E00E94C4027C
:100E900068EC70E080E090E00E94650280E090E005
:100EA000892B09F4E8CE0E940000E5CE85E191E0AF
:100EB0000E949A03882309F485CF6AE171E084E6F1
:100EC00091E00E94E30324E630E03A832983D12CA9
:100ED000C12C82E10E942E02C816D9060CF46C01C6
:100EE00089819A8101979A838983892B91F7A4E656
:100EF000B0E0BA83A983F12CE12C83E10E942E0299
:100F0000E816F9060CF47C0129813A812150310957
:100F10003A832983232B89F784E690E09A83898397
:100F200010E000E080E10E942E02081719070CF47F
:100F30008C01A981BA811197BA83A983AB2B91F750
:100F400084E6A82EB12C1A82198281E10E942E0219
:100F500029813A812817390714F49A83898331E06B
:100F6000A31AB10891F7C601B4010E94C909072E5E
:100F7000000C880B990B0E94630824EF3DEF44E3BB
:100F80005FE30E949E080E94930970934B01609357
:100F90004A01C701B4010E94C909072E000C880B41
:100FA000990B0E94630824EF3DEF44E35FE30E9446
:100FB0009E080E9493097093490160934801C801FB
:100FC000B4010E94C909072E000C880B990B0E94DE
:100FD000630824EF3DEF44E35FE30E949E080E9414
:100FE0009309709347016093460189819A81B40106
:100FF0000E94C909072E000C880B990B0E946308F8
:1010000024EF3DEF44E35FE30E949E080E949309B2
:10101000D5CEEBE7F1E0138212828AE091E0918372
:10102000808383E0848384E0858385E0868386E013
:10103000878387E08087168662E171E085E791E02B
:101040000E94100564E371E08EE591E00E941005B6
:1010500064E371E088E591E00E94100564E371E0CB
:1010600082E591E00E94100564E371E08CE491E078
:101070000E94100564E371E084E691E00C94100591
:1010800084E691E00E94B3038CE491E00E94B303F4
:1010900082E591E00E94B30388E591E00E94B303EA
:1010A0008EE591E00E94B30385E791E00C94B303D1
:1010B000FB01DC0102C005900D9241505040D8F771
:1010C0000895E89409C097FB3EF49095809570953B
:1010D00061957F4F8F4F9F4F9923A9F0F92F96E984
:1010E000BB279395F695879577956795B795F111F9
:1010F000F8CFFAF4BB0F11F460FF1BC06F5F7F4F96
:101100008F4F9F4F16C0882311F096E911C07723A7
:1011100021F09EE8872F762F05C0662371F096E8B0
:10112000862F70E060E02AF09A95660F771F881F7F
:10113000DAF7880F9695879597F908950E94B10878
:101140000C9422090E94140938F00E941B0920F017
:10115000952311F00C940B090C94110911240C9493
:1011600056090E94330970F3959FC1F3950F50E023
:10117000551F629FF001729FBB27F00DB11D639F49
:10118000AA27F00DB11DAA1F649F6627B00DA11DEF
:10119000661F829F2227B00DA11D621F739FB00D95
:1011A000A11D621F839FA00D611D221F749F332705
:1011B000A00D611D231F849F600D211D822F762F9E
:1011C0006A2F11249F5750409AF0F1F088234AF07B
:1011D000EE0FFF1FBB1F661F771F881F91505040E7
:1011E000A9F79E3F510580F00C940B090C94560909
:1011F0005F3FE4F3983ED4F3869577956795B7956E
:10120000F795E7959F5FC1F7FE2B880F911D969587
:10121000879597F9089597F99F6780E870E060E0F7
:1012200008959FEF80EC089500240A94161617067F
:1012300018060906089500240A94121613061406C7
:1012400005060895092E0394000C11F4882352F02A
:10125000BB0F40F4BF2B11F460FF04C06F5F7F4FE2
:101260008F4F9F4F089557FD9058440F551F59F0C9
:101270005F3F71F04795880F97FB991F61F09F3F83
:1012800079F087950895121613061406551FF2CFAC
:101290004695F1DF08C0161617061806991FF1CFFC
:1012A00086957105610508940895E894BB27662723
:1012B0007727CB0197F908952F923F924F925F9233
:1012C0006F927F928F929F92AF92BF92CF92DF9256
:1012D000EF92FF920F931F93CF93DF93CDB7DEB7BB
:1012E000CA1BDB0B0FB6F894DEBF0FBECDBF09944F
:1012F0002A88398848885F846E847D848C849B84A6
:10130000AA84B984C884DF80EE80FD800C811B81B3
:10131000AA81B981CE0FD11D0FB6F894DEBF0FBEE2
:10132000CDBFED0108950E949A096894B1110C9403
:10133000560908950E943B0988F09F5798F0B92FED
:101340009927B751B0F0E1F0660F771F881F991FFA
:101350001AF0BA95C9F714C0B13091F00E9455093E
:10136000B1E008950C945509672F782F8827B85F4E
:1013700039F0B93FCCF3869577956795B395D9F752
:101380003EF490958095709561957F4F8F4F9F4F5C
:10139000089597FB072E16F4009407D077FD09D027
:1013A0000E94FF0907FC05D03EF4909581959F4F60
:1013B0000895709561957F4F0895A1E21A2EAA1B9A
:1013C000BB1BFD010DC0AA1FBB1FEE1FFF1FA217F5
:1013D000B307E407F50720F0A21BB30BE40BF50BF2
:1013E000661F771F881F991F1A9469F7609570957B
:1013F000809590959B01AC01BD01CF010895AA1B7A
:10140000BB1B51E107C0AA1FBB1FA617B70710F0EF
:10141000A61BB70B881F991F5A95A9F78095909521
:10142000BC01CD010895EE0FFF1F0590F491E02D52
:1014300009940F931F93CF93DF938230910510F49B
:1014400082E090E0E091CC01F091CD0130E020E02D
:10145000B0E0A0E0309799F42115310509F44AC0B5
:10146000281B390B24303105D8F58A819B81611501
:10147000710589F1FB0193838283FE0111C04081D4
:1014800051810281138148175907E0F04817590725
:1014900099F4109761F012960C93129713961C937F
:1014A0003296CF01DF91CF911F910F910895009354
:1014B000CC011093CD01F4CF2115310551F0421725
:1014C000530738F0A901DB019A01BD01DF01F801E2
:1014D000C1CFEF01F9CF9093CD018093CC01CDCF57
:1014E000FE01E20FF31F819391932250310939835A
:1014F0002883D7CF2091CA013091CB01232B41F40F
:1015000020910201309103013093CB012093CA0155
:1015100020910001309101012115310541F42DB7D1
:101520003EB74091040150910501241B350BE09119
:10153000CA01F091CB01E217F307A0F42E1B3F0B79
:101540002817390778F0AC014E5F5F4F2417350735
:1015500048F04E0F5F1F5093CB014093CA01819317
:1015600091939FCFF0E0E0E09CCFCF93DF93009783
:10157000E9F0FC01329713821282A091CC01B09164
:10158000CD01ED0130E020E01097A1F42081318100
:10159000820F931F2091CA013091CB012817390780
:1015A00009F061C0F093CB01E093CA01DF91CF91C4
:1015B0000895EA01CE17DF07E8F54A815B819E01B5
:1015C00041155105B1F7E901FB83EA83499159912E
:1015D000C40FD51FEC17FD0761F48081918102963D
:1015E000840F951FE90199838883828193819B836E
:1015F0008A83F0E0E0E012968D919C91139700971A
:10160000B9F52D913C911197CD010296820F931F50
:101610002091CA013091CB012817390739F630974C
:1016200051F51092CD011092CC01B093CB01A09353
:10163000CA01BCCFD383C28340815181840F951FDF
:10164000C817D90761F44E5F5F4F88819981480FB1
:10165000591F518340838A819B8193838283211503
:10166000310509F0B0CFF093CD01E093CC019ECFCE
:10167000FD01DC01C0CF13821282D7CFB0E0A0E021
:10168000E4E4FBE00C945E098C01009751F4CB017B
:101690000E94190A8C01C801CDB7DEB7E0E10C94B5
:1016A0007A09FC01E60FF71F9C0122503109E2176D
:1016B000F30708F49DC0D901CD91DC911197C617AD
:1016C000D70798F0C530D10530F3CE0104978617BF
:1016D000970708F3C61BD70B2297C193D1936D933D
:1016E0007C93CF010E94B50AD6CF5B01AC1ABD0A2C
:1016F0004C018C0E9D1EA091CC01B091CD01512CBE
:10170000412CF12CE12C109731F58091CA01909178
:10171000CB018815990509F05CC04616570608F0FC
:1017200058C08091000190910101009741F48DB75C
:101730009EB74091040150910501841B950BE81759
:10174000F90708F055C0F093CB01E093CA01F90105
:1017500071836083A0CF8D919C91119712966C90AC
:10176000129713967C901397A815B90559F56C013B
:1017700042E0C40ED11CCA14DB0420F1AC014A19AA
:101780005B09DA011296159780F0628273825183A9
:101790004083D9016D937C93E114F10471F0D7017A
:1017A0001396FC93EE93129776CF22968C0F9D1F83
:1017B000F90191838083F301EFCFF093CD01E093A2
:1017C000CC0169CF4816590608F42C017D01D301DC
:1017D0009ACFCB010E94190A7C01009749F0AE0113
:1017E000B8010E94FB0BC8010E94B50A870153CFC4
:1017F00010E000E050CFFB01DC0102C001900D922F
:1018000041505040D8F70895FB01DC018D910190C3
:1018100080190110D9F3990B0895FB01DC010190A7
:101820000D920020E1F7089511E0C2E5D1E004C077
:10183000FE010E94130A2196C335D107C9F7F89417
:10184000FFCF0000CE0180000000000019049702C5
:10185000CE02CD024443004143002D00726D73005F
:10186000564F4C54494D4554524F004D4F444F3AFA
:10187000200056313A200056323A200056333A20A2
:061880000056343A20007E
:107E0000112484B714BE81FFF0D085E080938100F7
:107E100082E08093C00088E18093C10086E0809377
:107E2000C20080E18093C4008EE0C9D0259A86E02C
:107E300020E33CEF91E0309385002093840096BBD3
:107E4000B09BFECF1D9AA8958150A9F7CC24DD24C4
:107E500088248394B5E0AB2EA1E19A2EF3E0BF2EE7
:107E6000A2D0813461F49FD0082FAFD0023811F036
:107E7000013811F484E001C083E08DD089C08234E0
:107E800011F484E103C0853419F485E0A6D080C0E4
:107E9000853579F488D0E82EFF2485D0082F10E0AE
:107EA000102F00270E291F29000F111F8ED06801E7
:107EB0006FC0863521F484E090D080E0DECF843638
:107EC00009F040C070D06FD0082F6DD080E0C81688
:107ED00080E7D80618F4F601B7BEE895C0E0D1E017
:107EE00062D089930C17E1F7F0E0CF16F0E7DF06D8
:107EF00018F0F601B7BEE89568D007B600FCFDCFD4
:107F0000A601A0E0B1E02C9130E011968C91119780
:107F100090E0982F8827822B932B1296FA010C0160
:107F200087BEE89511244E5F5F4FF1E0A038BF0790
:107F300051F7F601A7BEE89507B600FCFDCF97BE46
:107F4000E89526C08437B1F42ED02DD0F82E2BD052
:107F50003CD0F601EF2C8F010F5F1F4F84911BD097
:107F6000EA94F801C1F70894C11CD11CFA94CF0C13
:107F7000D11C0EC0853739F428D08EE10CD085E9AC
:107F80000AD08FE07ACF813511F488E018D01DD067
:107F900080E101D065CF982F8091C00085FFFCCF94
:107FA0009093C60008958091C00087FFFCCF809118
:107FB000C00084FD01C0A8958091C6000895E0E648
:107FC000F0E098E1908380830895EDDF803219F02E
:107FD00088E0F5DFFFCF84E1DECF1F93182FE3DFCA
:107FE0001150E9F7F2DF1F91089580E0E8DFEE27F6
:047FF000FF270994CA
:027FFE00040479
:00000001FF
